:040000000128FD2FA7
:100E36001E27412708003830210099009A019801A1
:100E46000800F0002000111E252F700823009A00CC
:100E560008002000911E2C2F23009D1C342F1D12EC
:100E66001D1619080800483023009F0090309D0089
:100E760026309E000C309B009C01080022008C014D
:100E86000F3021008C0023008C0124008C012100EE
:100E9600951722009D0108001B2720000C19FC2F26
:100EA600362722000C128C16F301F4010730740267
:100EB600D0300319730203186B2F0130F30700308B
:100EC600F43D07307402D03003197302031C602FFF
:100ED60022000C168C12F301F40107307402D03094
:100EE600031973020318822F0130F3070030F43D13
:100EF60007307402D03003197302031C772F2200C7
:100F06000C128C16F301F40107307402D030031969
:100F160073020318992F0130F3070030F43D0730B0
:100F26007402D03003197302031C8E2F22000C1694
:100F36008C12F301F40107307402D03003197302E6
:100F46000318B02F0130F3070030F43D0730740268
:100F5600D03003197302031CA52F22000C128C1229
:100F66005230242765302427613024276430242713
:100F7600793024272E3024272E3024272E3024277C
:100F86002C27F1007108F200E02F22000C128C12BF
:100F960072082427EE2F22000C128C1672082427C2
:100FA600EE2F22000C168C1272082427EE2F220038
:100FB6000C168C1672082427EE2F7208313A031984
:100FC600C82F033A0319CE2F013A0319D42F073A33
:100FD6000319DA2FEE2FF301F40101307402F43015
:100FE600031973020318C32F0130F3070030F43DD1
:0A0FF600F02FFC2F7E1020004F2F7B
:020000040001F9
:04000E00E4EFFFDE3E
:00000001FF
